:1003460053756E004D6F6E005475650057656400F9
:1003560054687500467269005361740020202D2090
:0E036600202D20200020203A20203A202000C8
:1003A1001508FF0346FF034AFF034EFF0352FF03F5
:0703B10056FF035AFF035E33
:100003001204581204B17BFF7A0379627D017F01E8
:100013001203CB7BFF7A03796B7D017F021203CB43
:10002300120374120429E524FB7A00752F027D0163
:100033007F0112040CE525FB7A00752F027D047FF6
:100043000112040CE526FB7A00752F027D077F0160
:1000530012040CE52A75F00784E5F075F003A42477
:1000630008F8860308E6FA08E6F97D0A7F01120319
:10007300CBE527FB7A00752F027D017F0212040C6A
:10008300E528FB7A00752F027D047F0212040CE53C
:1000930029FB7A00752F027D077F0212040C8083EF
:1003B800071D8C88868482808A07241804161632C2
:0203C8003701FB
:0504B100C2B5C2B62235
:0601C3008C2B8D2CAB0714
:1001C900D2B5E4FD7E007401A805088005C333CECD
:1001D90033CED8F9FFEBF582EF558224FF92B4D2E2
:1001E900B6C2B60DBD08DDE4FD7E007401A80508A0
:1001F9008005C333CE33CED8F9FFE52B5EFEE52C5F
:100209005F4E24FF92B4D2B6C2B60DBD08DBC2B5AB
:0102190022C2
:02021A00AD072E
:10021C00E4F9430501D2B5FB7E007401A803088004
:10022C0005C333CE33CED8F9FFEDF582EF558224DA
:10023C00FF92B4C2B6D2B60BBB08DDE4FBD2B6C299
:10024C00B630B40DA8037401088002C333D8FC4245
:0B025C00010BBB08E8C2B5C2B4AF0143
:010267002274
:10046C00EF75F00A84C454F0FEEF75F00A84EE25A3
:03047C00F0FF226C
:0F047F00EFC4540F75F00AA4FEEF540F2EFF22A6
:10037400E4FDFC7F8E1201C3E4FA74242AF8E6FF3C
:1003840012046CEFFD7C00741D2AF8E6FF1201C311
:0D0394000ABA07E67D807C007F8E0201C35F
:10042900E4FC741D2CF8E6FF12021A12047F7424EE
:080439002CF8A6070CBC07EA31
:010441002298
:06048E00C2A58F80D2A779
:080494007F027EEFDEFEDFFCBB
:01049C00223D
:0A049D00C2A612048EC2A702049446
:1003EE00CFCDCFCECCCE1200E27C007D0A1200E241
:0403FE00ED2430FFBB
:0A040200D2A612048EC2A7020494D1
:10044200AE07BE0104ED148006BE0209ED243F444E
:0604520080FF12049D2250
:100458007F3812049D7F0C12049D7F0612049D7F35
:040468000102049DEC
:0A04A700AC03120442AF0402040289
:0603CB008B2B8A2C892D0A
:1003D100120442E4FDAB2BAA2CA92D8D827583005A
:0C03E1001200A3FF60061204020D80E968
:0103ED0022ED
:0C0313007F0AEA24FFFDE434FFFC7E00BA
:08031F008E308F318C328D33DA
:100327007F017E00E4FBEBC39533E5326480F8740C
:0E0337008098500AAC30AD311200D00B80E837
:010345002295
:04040C008A2D8B2E7C
:10041000120442AA2FEAD39400400D120313AC2D0C
:08042000AD2E1203EE1A80ED6F
:0104280022B1
:10026800120442C3EA64809480400B7F2B1204027C
:100278008A398B3A800E7F2D120402C3E49BF53A2B
:10028800E49AF539AA38EAD39400400D120313AC66
:0902980039AD3A1203EE1A80EDB3
:0102A100223A
:0402A2008A3D8B3EC8
:1002A600120442AA3FEAD3940040297F1012031594
:1002B600AC3DAD3ECFCDCFCECCCE1200E2EF540F4B
:1002C600FEC3940AEE5004243080022437FF120441
:0402D600021A80D1B7
:0102DA002201
:0402DB008A428B4385
:1002DF00120442AA44EAD394004028EA24FFFDE422
:1002EF0034FFFC7F027E0012031FAC42AD43CFCD23
:1002FF00CFCECCCE1200E2EF54012430FF12040215
:03030F001A80D27F
:0103120022C8
:03000000020137C3
:0C013700787FE4F6D8FD75814402017E5B
:1000A300BB010CE58229F582E5833AF583E0225012
:1000B30006E92582F8E622BBFE06E92582F8E2225C
:0D00C300E58229F582E5833AF583E4932276
:1000D000EF8DF0A4A8F0CF8CF0A428CE8DF0A42E44
:0200E000FE22FE
:1000E200BC000BBE0029EF8DF084FFADF022E4CC02
:1000F200F875F008EF2FFFEE33FEEC33FCEE9DECCB
:10010200984005FCEE9DFE0FD5F0E9E4CEFD22ED10
:10011200F8F5F0EE8420D21CFEADF075F008EF2F5A
:10012200FFED33FD4007985006D5F0F222C398FD4B
:050132000FD5F0EA22E8
:10014300020003E493A3F8E493A34003F68001F2CF
:1001530008DFF48029E493A3F85407240CC8C333BD
:10016300C4540F4420C8834004F456800146F6DF8C
:10017300E4800B01020408102040809003A1E47E78
:10018300019360BCA3FF543F30E509541FFEE49381
:10019300A360010ECF54C025E060A840B8E493A348
:1001A300FAE493A3F8E493A3C8C582C8CAC583CA73
:1001B300F0A3C8C582C8CAC583CADFE9DEE780BE2B
:0103CA000032
:00000001FF
