:10033E005772697465204F4B00202020202020200A
:10034E00200052656164204F4B0020202020202089
:02035E0020007D
:100003001203E480251201678F24E524B4010E0551
:1000130023E52370020522750C05FB8012E524B449
:100023000218E523152370021522750C05AB23AACC
:10003300227D017F0112039C80CBE524640370427F
:10004300FCAD23FF1202F77F057E001203CFE522EA
:10005300FD7C007F011202F77F057E001203CF7B38
:10006300FF7A03793E7D017F0212031B7FE87E0343
:100073001203CF7BFF7A0379477D017F0212031BB3
:100083008083E52464046003020008FF12029E7566
:1000930022008F237F0112029EEFFEEE4222750C97
:1000A30005AB23AA227D017F0112039C7BFF7A0308
:1000B30079507D017F0212031B7FE87E031203CF79
:1000C3007BFF7A0379587D017F0212031B0200082C
:09043D00D2A0D2A1C2A0C2A122EA
:07044600C2A0D2A1D2A02246
:0202CE00AD077A
:1002D000E4FB7E007480A803088006CEA2E713CE5C
:1002E00013D8F8FFEDF582EF558224FF92A0D2A13A
:0602F000C2A10BBB08DCFB
:0102F60022E5
:10036000E4FFD2A0FED2A130A00DA80674800880C0
:0D03700002C313D8FC4207C2A10EBE08E86C
:01037D00225D
:0A041F00EF24FF92A0D2A1C2A12297
:0B040700D2A0D2A1A2A0E433FFC2A14A
:0104120022C7
:1002F7008F088C098D0A12043D7FA01202CE1204CA
:1003070007AF081202CE120407AF0A1202CE120478
:04031700070204468F
:02029E008F08C7
:1002A00012043D7FA01202CE120407AF081202CE44
:1002B00012040712043D7FA11202CE12040712039A
:0D02C000608F097F0112041F120446AF0970
:0102CD00220E
:1003CF00EF1FAC0670011E4C600A7D027CEFDCFE55
:0403DF00DDFC80ECD5
:0103E30022F7
:0603F800C2A58F80D2A710
:0803FE007F027EEFDEFEDFFC52
:0104060022D3
:0A042900C2A61203F8C2A70203FEE8
:10037E00CFCDCFCECCCE1201127C007D0A1201124F
:04038E00ED2430FF2B
:0A039200D2A61203F8C2A70203FE70
:1003B900AE07BE0104ED148006BE0209ED243F44D8
:0603C90080FF120429224E
:1003E4007F381204297F0C1204297F061204297F06
:0403F40001020429D5
:0A043300AC031203B9AF04020392F8
:06031B008B088A09890A23
:100321001203B9E4FDAB08AA09A90A8D82758300FD
:0C0331001200D3FF60061203920D80E959
:01033D00229D
:0C026B007F0AEA24FFFDE434FFFC7E0063
:080277008E0D8F0E8C0F8D100F
:10027F007F017E00E4FBEBC39510E50F6480F874FB
:0E028F008098500AAC0DAD0E1201000B80E8F5
:01029D00223E
:04039C008A0A8B0B33
:1003A0001203B9AA0CEAD39400400D12026BAC0AF6
:0803B000AD0B12037E1A80ED73
:0103B8002222
:1001C0001203B9C3EA64809480400B7F2B12039220
:1001D0008A168B17800E7F2D120392C3E49BF517AE
:1001E000E49AF516AA15EAD39400400D12026BACFE
:0901F00016AD1712037E1A80ED12
:0101F90022E3
:0401FA008A1A8B1BB7
:1001FE001203B9AA1CEAD3940040297F1012026D93
:10020E00AC1AAD1BCFCDCFCECCCE120112EF540F08
:10021E00FEC3940AEE5004243080022437FF1203EA
:04022E00921A80D1CF
:0102320022A9
:040233008A1F8B2073
:100237001203B9AA21EAD394004028EA24FFFDE477
:1002470034FFFC7F027E00120277AC1FAD20CFCDBA
:10025700CFCECCCE120112EF54012430FF120392FD
:030267001A80D228
:01026A002271
:10016700E4F50820B1147F14FE800720B1097F143D
:100177007E001203CF80F475080120B011800320A0
:10018700B0097F147E001203CF80F475080220B2F5
:1001970011800320B2097F147E001203CF80F4750B
:1001A700080320B311800320B3097F147E001203D4
:0801B700CF80F4750804AF08C5
:0101BF00221D
:03000000020413E4
:0C041300787FE4F6D8FD75812402000318
:1000D300BB010CE58229F582E5833AF583E02250E2
:1000E30006E92582F8E622BBFE06E92582F8E2222C
:0D00F300E58229F582E5833AF583E4932246
:10010000EF8DF0A4A8F0CF8CF0A428CE8DF0A42E13
:02011000FE22CD
:10011200BC000BBE0029EF8DF084FFADF022E4CCD1
:10012200F875F008EF2FFFEE33FEEC33FCEE9DEC9A
:10013200984005FCEE9DFE0FD5F0E9E4CEFD22EDE0
:10014200F8F5F0EE8420D21CFEADF075F008EF2F2A
:10015200FFED33FD4007985006D5F0F222C398FD1B
:050162000FD5F0EA22B8
:00000001FF
