:10000E000000F882F8E9F951F9AEFA0BFA5DFAAF91
:10001E00FAFAFB41FB86FBC5FC02FC3AFC6FFCA224
:10002E00FCD2FCFFFD2AFD52FD78FD9CFDBEFDDEDF
:10003E00FDFCFE18FE33FE4CFE64FE7BFE90FEA41D
:10004E00FEB7FEC9FEDAFEEAFEF90D040D04140435
:10005E0014041604160414081204120410041004D6
:10006E000F040F040D0800041404140412041204E7
:10007E00100410040F0814041404120412041004C3
:05008E0010040F08FF43
:1000D200120106E509F46028E50A90005893F50933
:1000E200050AE50A93F508050A75F07DA4FFAEF04E
:1000F20012011DC28C7F057E0012011DD28C80D39D
:04010200C28C80FE2D
:03000B000200935D
:10009300C0E0C083C082C0D075D000C005C006C018
:0100A3000755
:1000A400E50925E0240EF582E43400F583E493FEAB
:0F00B400740193FF4E6008AD078D8A8E8CB2A544
:0F00C300D007D006D005D0D0D082D083D0E03285
:10011D00EF1FAC0670011E4C600A7D027CEFDCFE09
:04012D00DDFC80EC89
:0101310022AB
:100106005389F0438901758A66758CFCC28DD28C41
:07011600D2A9D2AFC2B92249
:03000000020132C8
:0C013200787FE4F6D8FD75810A0200D247
:00000001FF
