:05001E0012000380FE4A
:03002300020026B2
:10002600C0E0C0F0C083C082C0D075D000C000C0A0
:1000360001C002C003C004C005C006C00730980E48
:10004600E599F4F5A0AF997E00120090C298D0070A
:10005600D006D005D004D003D002D001D000D0D035
:09006600D082D083D0F0D0E0324A
:10006F00EF1FAC0670011E4C600A7D027CEFDCFEB8
:04007F00DDFC80EC38
:01008300225A
:1000030043878075985053890F438920758BF47506
:0B0013008DF4C2ABD28ED2AFD2AC2273
:080090008F993099FDC29922FD
:0300000002008477
:0C008400787FE4F6D8FD75810702001EAD
:00000001FF
