:0D03C200E52370047F0180027F008F23225D
:08000300E4F525F524F52622A1
:1001F700E525FD7C00E4FF1202DD7F057E0012038A
:1002070099E524FD7C007F011202DD7F057E001247
:100217000399E526FD7C007F021202DD7F057E0043
:0302270002039936
:10036D00E4FF12025D8F257F0112025D8F247F0253
:06037D0012025D8F262232
:10012600E52575F00A84FD7C007F011203E5E525CF
:1001360075F00A84E5F0FD7C007F021203E57D0A76
:100146007C007F031203E5E52475F00A84FD7C003C
:100156007F041203E5E52475F00A84E5F0FD7C00D2
:100166007F051203E57D0A7C007F061203E5E5267E
:1001760075F00A84FD7C007F071203E5E52675F01D
:0C0186000A84E5F0FD7C007F080203E520
:10022A001203561203FE8F27E527B401051203C2F3
:10023A00801CE527B402051200038012E527B403E7
:10024A00051201F78008E527B4040312036D1201B1
:03025A002680D02B
:1002B600E52360220526E526C394644019E4F52665
:1002C6000524E524943C400EE4F5240525E5259413
:0702D6003C4003E4F5252282
:03000B0002000EE2
:10000E00C0E0C0F0C083C082C0D075D000C000C0B8
:0D001E0001C002C003C004C005C006C00739
:10002B00758A66758CFC051EE51E7002051DC39452
:10003B0014E51D94004009751D00751E001203AEDA
:10004B000520E5207002051FC39402E51F940040B4
:10005B0009751F0075200012033B0522E522700273
:10006B000521C3940AE521940040097521007522EE
:04007B00001202B6B7
:10007F00D007D006D005D004D003D002D001D000D5
:0B008F00D0D0D082D083D0F0D0E0327F
:10039900EF1FAC0670011E4C600A7D027CEFDCFE8B
:0403A900DDFC80EC0B
:0103AD00222D
:100356005389F0438901758A66758CFCC28DD28CEF
:07036600D2A9D2AFC2B922F7
:10031F000909000A0A0A0A0A0A0A0A0B123F065BAF
:0B032F004F666D7D077F6F40010801E5
:0903E500AE0574092FF8A60622EA
:10019200C2D0EF14B4080050549001A975F003A422
:1001A200C58325F0C583730201C10201C50201C9DD
:1001B2000201CD0201D10201D90201E10201E9D21B
:1001C200A4800ED2A48012D2A48016D2A4801AC215
:1001D200A4D2A3D2A28016C2A4D2A3C2A2800EC26B
:1001E200A4C2A3D2A28006C2A4C2A3C2A274122D28
:0501F200F8E6F5802293
:10033B0074092508F8E6FD7C00AF08120192050848
:0A034B00E508C394094003E4F50837
:010355002285
:0503FE00AF2AE4F52A1E
:0104030022D6
:10038300E4FF20B1010F20B0027F0220B2027F03FD
:0503930020B3027F040D
:010398002242
:1003AE008529281203838F29E5286007E529700324
:0303BE0085282A65
:0103C1002219
:1002DD008F2B8C2C8D2D1203EE7FA012028D12030D
:1002ED00CFAF2B12028D1203CFAF2D12028D120341
:0402FD00CF0203F732
:02025D008F2BE5
:10025F001203EE7FA012028D1203CFAF2B12028D6D
:10026F001203CF1203EE7FA112028D1203CF1203DE
:0D027F00018F2C7F011203DB1203F7AF2C5F
:01028C00224F
:0903EE00D2A0D2A1C2A0C2A1223A
:0703F700C2A0D2A1D2A02296
:02028D00AD07BB
:10028F00E4FB7E007480A803088006CEA2E713CE9D
:10029F0013D8F8FFEDF582EF558224FF92A0D2A17B
:0602AF00C2A10BBB08DC3C
:0102B5002226
:10030100E4FFD2A0FED2A130A00DA806748008801F
:0D03110002C313D8FC4207C2A10EBE08E8CB
:01031E0022BC
:0A03DB00EF24FF92A0D2A1C2A122DC
:0B03CF00D2A0D2A1A2A0E433FFC2A183
:0103DA002200
:0300000002009A61
:0C009A00787FE4F6D8FD75812D0200E1AE
:1000A60002022AE493A3F8E493A34003F68001F244
:1000B60008DFF48029E493A3F85407240CC8C3335B
:1000C600C4540F4420C8834004F456800146F6DF2A
:1000D600E4800B010204081020408090031FE47E98
:1000E600019360BCA3FF543F30E509541FFEE4931F
:1000F600A360010ECF54C025E060A840B8E493A3E6
:10010600FAE493A3F8E493A3C8C582C8CAC583CA10
:10011600F0A3C8C582C8CAC583CADFE9DEE780BEC8
:01033A0000C2
:00000001FF
