:1004A200202020202D20202D0020203A20203A003C
:10031700022807E802260004022A001E022C001702
:080327000224003B0222003811
:1000A2000523E52370020522C3943CE52294005007
:1000B20003020133E4F522F5230525E52570020547
:1000C20024943CE52494004068E4F524F525052DAC
:1000D200E52D7002052C9418E52C94004053E4F5AC
:1000E2002CF52DAD27AC26AF29AE28120430052BF6
:1000F200E52B7002052AD39FE52A9E4034752A001B
:10010200752B010527E52770020526D3940CE526F9
:100112009400401D7526007527010529E529700206
:100122000528D3940FE528942740067528007529E1
:020132000122A8
:10021800753204AB29AA287D017F011204137532B7
:1002280002AB27AA267D067F01120413753202ABA2
:100238002BAA2A7D097F01120413753202AB2DAA5D
:100248002C7D017F02120413753202AB25AA247D8E
:10025800047F02120413753202AB23AA227D077FA2
:040268000202041377
:1003AD0012048E12044C7BFF7A0479A27D017F0129
:1003BD001203D27BFF7A0479AB7D017F021203D247
:0503CD0012021880FB84
:03000B000201C02F
:1001C000C0E0C0F0C083C082C0D075D000C000C005
:0D01D00001C002C003C004C005C006C00786
:1001DD00758A66758CFC0521E52170020520C39496
:1001ED00E8E520940340097520007521001200A256
:1001FD00D007D006D005D004D003D002D001D00056
:0B020D00D0D0D082D083D0F0D0E032FF
:10044C005389F0438901758A66758CFCC28DD28CF8
:07045C00D2A9D2AFC2B92200
:10047900EF1FAC0670011E4C600A7D027CEFDCFEAA
:04048900DDFC80EC2A
:01048D00224C
:0604B200C2A58F80D2A755
:0804B8007F027EEFDEFEDFFC97
:0104C0002219
:0A04C100C2A61204B2C2A70204B8DA
:1003F500CFCDCFCECCCE12004D7C007D0A12004D64
:04040500ED2430FFB3
:0A040900D2A61204B2C2A70204B882
:10046300AE07BE0104ED148006BE0209ED243F442D
:0604730080FF1204C1220B
:10048E007F381204C17F0C1204C17F061204C17F93
:04049E00010204C192
:0A04CB00AC03120463AF040204093D
:0603D2008B2E8A2F8930FA
:1003D800120463E4FDAB2EAA2FA9308D8275830029
:0C03E80012000EFF60061204090D80E9EF
:0103F40022E6
:0C034A007F0AEA24FFFDE434FFFC7E0083
:080356008E338F348C358D3697
:10035E007F017E00E4FBEBC39536E5356480F874CF
:0E036E008098500AAC33AD3412003B0B80E88F
:01037C00225E
:040413008A308B316F
:10041700120463AA32EAD39400400D12034AAC30A7
:08042700AD311203F51A80ED5E
:01042F0022AA
:10026C00120463C3EA64809480400B7F2B12040950
:10027C008A3C8B3D800E7F2D120409C3E49BF53D17
:10028C00E49AF53CAA3BEAD39400400D12034AAC25
:09029C003CAD3D1203F51A80EDA2
:0102A5002236
:0402A6008A408B41BE
:1002AA00120463AA42EAD3940040297F1012034C35
:1002BA00AC40AD41CFCDCFCECCCE12004DEF540FD6
:1002CA00FEC3940AEE5004243080022437FF12043D
:0402DA00091A80D1AC
:0102DE0022FD
:0402DF008A458B467B
:1002E300120463AA47EAD394004028EA24FFFDE4FA
:1002F30034FFFC7F027E00120356AC45AD46CFCDE2
:10030300CFCECCCE12004DEF54012430FF1204099E
:030313001A80D27B
:0103160022C4
:10032F001808001F001D001F001E001F001E001FC9
:0A033F00001F001E001F001E001F1B
:10037D00AB07AA067C017D9012004DED4C7004FE7A
:10038D007F1D22EB54037013AE02AF03FC7D64128C
:10039D00004DED4C60057E007F1D227E007F1C22EE
:10043000ED25E02406F8E6FA08E6F5828A83ED6405
:0B044000024C700312037DAE83AF82FC
:01044B00228E
:03000000020134C6
:0C013400787FE4F6D8FD75814702017B5E
:10000E00BB010CE58229F582E5833AF583E02250A7
:10001E0006E92582F8E622BBFE06E92582F8E222F1
:0D002E00E58229F582E5833AF583E493220B
:10003B00EF8DF0A4A8F0CF8CF0A428CE8DF0A42ED9
:02004B00FE2293
:10004D00BC000BBE0029EF8DF084FFADF022E4CC97
:10005D00F875F008EF2FFFEE33FEEC33FCEE9DEC60
:10006D00984005FCEE9DFE0FD5F0E9E4CEFD22EDA6
:10007D00F8F5F0EE8420D21CFEADF075F008EF2FF0
:10008D00FFED33FD4007985006D5F0F222C398FDE1
:05009D000FD5F0EA227E
:100140000203ADE493A3F8E493A34003F68001F225
:1001500008DFF48029E493A3F85407240CC8C333C0
:10016000C4540F4420C8834004F456800146F6DF8F
:10017000E4800B0102040810204080900317E47E05
:10018000019360BCA3FF543F30E509541FFEE49384
:10019000A360010ECF54C025E060A840B8E493A34B
:1001A000FAE493A3F8E493A3C8C582C8CAC583CA76
:1001B000F0A3C8C582C8CAC583CADFE9DEE780BE2E
:0103490000B3
:00000001FF
