:10047F0012056612055A120530EF60301205638FB0
:10048F0022E522B41605E4F523801CE522B40C0501
:10049F007523018012E522B418057523028008E543
:1004AF0022B45E03752303AF231204C7E523FD7C3B
:0804BF00007F0112031680BE4C
:1004F9005389F0438901E4F58AF58CC28DC28C22B7
:07054D00AD078D8A8E8C22A0
:09054400AF8CEFFEAD8AEDFF2241
:06055400EF24FF928C224F
:10000600EF1FAC0670011E4C600A7D027CEFDCFE21
:04001600DDFC80ECA1
:01001A0022C3
:0C0518000A143F065B4F666D7D077F6F85
:10031600EF14B40800505490032B75F003A4C58362
:1003260025F0C5837302034302034702034B02030E
:100336004F02035302035B02036302036BD2A480E2
:100346000ED2A48012D2A48016D2A4801AC2A4D23D
:10035600A3D2A28016C2A4D2A3C2A2800EC2A4C2F5
:10036600A3D2A28006C2A4C2A3C2A274142DF8E628
:0C037600F5807F017E00120006C2D0223C
:10038200E4F52420B1147F14FE800720B1097F1404
:100392007E0012000680F475240120B01180032033
:1003A200B0097F147E0012000680F475240220B288
:1003B20011800320B2097F147E0012000680F475BA
:1003C200240320B311800320B3097F147E0012009E
:0803D2000680F4752404AF2439
:0103DA002200
:0B052500D288C289D2A8D2AFD2B8227F
:06055A001204F902052560
:09053000AF0FE50F6003E4F50FC5
:01053900229F
:09053A00AF0DE50D6003E4F50DC1
:010543002295
:03056000AF0C22BB
:03056300AF0B22B9
:0F050900E4FFFE12054D7F011205547508012213
:10029D001205448E098F0AE4FFFE12054DAC09AD1F
:1002AD000AE412009C7B677A96793A784612001E12
:1002BD00501BAC09AD0AE412009C7B677A36794A73
:1002CD00784612001E6006400475080222AC09AD86
:1002DD000AE412009C7B017A30791A784612001ECE
:1002ED005023AC09AD0AE412009C7B017AD0792928
:1002FD00784612001E600E400C750D01E4FF1205CC
:09030D0054E4F5082275080122F0
:100138001205448E098F0AE4FFFE12054DAC09AD85
:100148000AE412009C7B4A7A0C7905784412001E56
:100158005038AC09AD0AE412009C7B257A8679BF39
:10016800784412001E60234021E50E131313541F18
:100178002410F8C000E6FFE50E5407FEF8740108E5
:100188008002C333D8FCF45F804AAC09AD0AE4129C
:10019800009C7B347AB379C4784412001E503CAC7E
:1001A80009AD0AE412009C7B9A7AD9792078451225
:1001B800001E60274025E50E131313541F2410F862
:1001C800C000E6FFE50E5407FEF87401088002C37C
:1001D80033D8FC4FD000F6050E8006E4F50E7508FE
:1001E80001E50EC394204020E4F50EE511F4B510A6
:1001F8000FE513F4B5120985100C85120B750F0164
:09020800E4FF120554E4F508229C
:030003000203DB1A
:1003DB00C0E0C0F0C083C082C0D075D000C000C0E8
:1003EB0001C002C003C004C005C006C007E5087009
:1003FB00051205098012E508B4010512029D80085B
:10040B00E508B40203120138D007D006D005D0049A
:10041B00D003D002D001D000D0D0D082D083D0F086
:03042B00D0E032EC
:1004E20053890F438910758BA4758DFFC28FD28EED
:0704F200D2ABD2AFC2BB2266
:030566000204E2AA
:1004C700EF7003F52022BF010475203222BF02041A
:0B04D70075204B22BF03037520642238
:03001B0002042EAE
:10042E00C0E0C0F0C0D075D000C000C004C005C090
:03043E0006C007EE
:10044100758BA4758DFF051FE51F7002051EAE1E7D
:10045100FF7C007D641200D58C1E8D1FC3E51F95A6
:0D04610020E51E94005004D2908002C2904D
:10046E00D007D006D005D004D000D0D0D0F0D0E048
:01047E00324B
:10001E0074F8CC6480CCC86480C8F58204604FC389
:10002E00EB9FF5F0EA9E42F0E99D42F0E89C45F028
:10003E00603C501DE5825FFFE582D313CB5BCBF4B2
:10004E002B5582FB50280ABA002409B900200880DB
:10005E001DE5825BFBE582D313CF5FCFF4C3132F75
:10006E005582FF50090EBE00050DBD00010CC3EBFD
:10007E009FF5F0EA9E42F0E99D42F0E89C45F06063
:09008E0007CC4820E701B3EC2285
:1000970075F020800E75F010800575F0087D007EE4
:1000A700007F003392D530D50312012AEC3340107C
:1000B700EF33FFEE33FEED33FDEC33FCD5F0ED22ED
:0E00C700E5F0247EA2D513CC92E7CDCEFF2229
:03000000020211E8
:0C021100787FE4F6D8FD758124020258C5
:1000D500BC000BBE0029EF8DF084FFADF022E4CC0F
:1000E500F875F008EF2FFFEE33FEEC33FCEE9DECD8
:1000F500984005FCEE9DFE0FD5F0E9E4CEFD22ED1E
:10010500F8F5F0EE8420D21CFEADF075F008EF2F67
:10011500FFED33FD4007985006D5F0F222C398FD58
:050125000FD5F0EA22F5
:0E012A00C3E49FFFE49EFEE49DFDE49CFC22E6
:10021D0002047FE493A3F8E493A34003F68001F274
:10022D0008DFF48029E493A3F85407240CC8C333E2
:10023D00C4540F4420C8834004F456800146F6DFB1
:10024D00E4800B0102040810204080900518E47E24
:10025D00019360BCA3FF543F30E509541FFEE493A6
:10026D00A360010ECF54C025E060A840B8E493A36D
:10027D00FAE493A3F8E493A3C8C582C8CAC583CA98
:10028D00F0A3C8C582C8CAC583CADFE9DEE780BE50
:0105240000D6
:00000001FF
