:1000B4001200E5E4F50C850C0A7F0A7E001200FCB0
:1000C400050CE50CC3946440ED750C64E50CD39405
:1000D4000040E0850C0A7F0A7E001200FC150C80AB
:0100E400EB30
:03000B000200638D
:10006300C0E0C0F0C0D075D000C000C004C005C05F
:0300730006C007BD
:10007600758AA4758CFF0509E50970020508AE08A6
:10008600FF7C007D6412000E8C088D09C3E509957E
:0D0096000AE50894005004D2A18002C2A126
:1000A300D007D006D005D004D000D0D0D0F0D0E017
:0100B300321A
:1000FC00EF1FAC0670011E4C600A7D027CEFDCFE2B
:04010C00DDFC80ECAA
:0101100022CC
:1000E5005389F0438901758AA4758CFFC28DD28C22
:0700F500D2A9D2AFC2B9226B
:03000000020111E9
:0C011100787FE4F6D8FD75810C0200B484
:10000E00BC000BBE0029EF8DF084FFADF022E4CCD6
:10001E00F875F008EF2FFFEE33FEEC33FCEE9DEC9F
:10002E00984005FCEE9DFE0FD5F0E9E4CEFD22EDE5
:10003E00F8F5F0EE8420D21CFEADF075F008EF2F2F
:10004E00FFED33FD4007985006D5F0F222C398FD20
:05005E000FD5F0EA22BD
:00000001FF
