:1007850020202D20202D20200020203A20203A2036
:02079500200042
:1006260012075E12088612071C7BFF7A0779857D02
:10063600017F0112064C7BFF7A07798E7D017F02CE
:0606460012064C0205CF74
:10057300E542B4020B0543E54375F0078485F04378
:10058300E542B40305AF43120003E542B40405AFEB
:0E0593004312087EE541FD7C00AF430200FAF2
:1004D6001206261202F48F42E542B40116E5407078
:1004E60007754001F543800BE540B40106E4F5408D
:1004F6001205CFE540700512070480D7E540B40128
:06050600D212057380CD46
:03000B0002042CC0
:09042C00C0E0C0D075D000C0078B
:10043500758A66758CFC053FE53F7002053EC394E1
:10044500F4E53E94014012753E00753F00E54170AC
:09045500047F0180027F008F4149
:07045E00D007D0D0D0E0323E
:1005FC00071D8C88868482808A072418041616327C
:02060C003701B4
:05088600C2B5C2B6225C
:06034D008C2B8D2CAB0788
:10035300D2B5E4FD7E007401A805088005C333CE41
:1003630033CED8F9FFEBF582EF558224FF92B4D256
:10037300B6C2B60DBD08DDE4FD7E007401A8050814
:100383008005C333CE33CED8F9FFE52B5EFEE52CD3
:100393005F4E24FF92B4D2B6C2B60DBD08DBC2B520
:0103A3002237
:0203A400AD07A3
:1003A600E4F9430501D2B5FB7E007401A803088079
:1003B60005C333CE33CED8F9FFEDF582EF5582244F
:1003C600FF92B4C2B6D2B60BBB08DDE4FBD2B6C20E
:1003D600B630B40DA8037401088002C333D8FC42BA
:0B03E600010BBB08E8C2B5C2B4AF01B8
:0103F10022E9
:10077200EF75F00A84C454F0FEEF75F00A84EE259A
:03078200F0FF2263
:0F079700EFC4540F75F00AA4FEEF540F2EFF228B
:1005CF00E4FDFC7F8E12034DE4FA74242AF8E6FF53
:1005DF00120772EFFD7C00741D2AF8E6FF12034D1F
:0D05EF000ABA07E67D807C007F8E02034D76
:1006EB00E4FC741D2CF8E6FF1203A4120797742484
:0806FB002CF8A6070CBC07EA6D
:0107030022D3
:0607A600C2A58F80D2A75E
:0807AC007F027EEFDEFEDFFCA0
:0107B4002222
:0A086A00C2A61207A6C2A70207AC3F
:10069200CFCDCFCECCCE12006F7C007D0A12006F80
:0406A200ED2430FF14
:0A06A600D2A61207A6C2A70207ACF5
:10073300AE07BE0104ED148006BE0209ED243F445A
:0607430080FF12086A228B
:10075E007F3812086A7F0C12086A7F0612086A7FB9
:04076E000102086A12
:0A087400AC03120733AF040206A61E
:06064C008B2E8A2F89307D
:10065200120733E4FDAB2EAA2FA9308D82758300D9
:0C066200120030FF60061206A60D80E9B1
:01066E002269
:0C0540007F0AEA24FFFDE434FFFC7E008B
:08054C008E338F348C358D369F
:100554007F017E00E4FBEBC39536E5356480F874D7
:0E0564008098500AAC33AD3412005D0B80E875
:010572002266
:0406CE008A308B31B2
:1006D200120733AA32EAD39400400D120540AC301F
:0806E200AD311206921A80ED01
:0106EA0022ED
:1003F200120733C3EA64809480400B7F2B1206A657
:100402008A3C8B3D800E7F2D1206A6C3E49BF53DF0
:10041200E49AF53CAA3BEAD39400400D120540ACA5
:090422003CAD3D1206921A80ED7A
:01042B0022AE
:040465008A468B47F1
:10046900120733AA48EAD3940040297F10120542A3
:10047900AC46AD47CFCDCFCECCCE12006FEF540FE7
:10048900FEC3940AEE5004243080022437FF12067A
:04049900A61A80D14E
:01049D00223C
:04049E008A4B8B4CAE
:1004A200120733AA4DEAD394004028EA24FFFDE460
:1004B20034FFFC7F027E0012054CAC4BAD4CCFCD1D
:1004C200CFCECCCE12006FEF54012430FF1206A61D
:0304D2001A80D2BB
:0104D5002204
:1002F400E4F52B20B1147F14FE800720B1097F148C
:100304007E0012074980F4752B0120B01180032070
:10031400B0097F147E0012074980F4752B0220B2C5
:1003240011800320B2097F147E0012074980F475FE
:100334002B0320B311800320B3097F147E0012071E
:080344004980F4752B04AF2B76
:01034C00228E
:10071C005389F0438901758A66758CFCC28DD28C25
:07072C00D2A9D2AFC2B9222D
:10074900EF1FAC0670011E4C600A7D027CEFDCFED7
:04075900DDFC80EC57
:01075D002279
:10066F0053756E004D6F6E005475650057656400CD
:10067F005468750046726900536174002020002091
:03068F0020200028
:10060E001508FF066FFF0673FF0677FF067BFF06D2
:07061E007FFF0683FF068742
:0F07B500E524FB7A007532027D017F010206CE3A
:0F07C400E525FB7A007532027D047F010206CE27
:0F07D300E526FB7A007532027D077F010206CE14
:0F07E200E527FB7A007532027D017F020206CE09
:0F07F100E528FB7A007532027D047F020206CEF6
:0F080000E529FB7A007532027D077F020206CEE2
:1006B000E52A75F00784E5F075F003A42408F886B0
:0E06C0000308E6FA08E6F97D0A7F0102064CFF
:0D080F007BFF7A06798B7D017F0102064C8C
:0D081C007BFF7A06798B7D047F0102064C7C
:0D0829007BFF7A06798B7D077F0102064C6C
:0D0836007BFF7A06798B7D017F0202064C64
:0D0843007BFF7A06798B7D047F0202064C54
:0D0850007BFF7A06798B7D077F0202064C44
:0D085D007BFF7A06798E7D0A7F0102064C32
:100704001206EB1207B51207C41207D31207E2123E
:0807140007F11208000206B013
:1000FA008F2B8C2C8D2DE52B700DE52D6401452C55
:10010A00700512080F80031207B5E52BB4010DE53F
:10011A002D6401452C700512081C80031207C4E5E2
:10012A002BB4020DE52D6401452C700512082980B7
:10013A00031207D3E52BB4030DE52D6401452C709A
:10014A000512083680031207E2E52BB4040DE52DEB
:10015A006401452C700512084380031207F1E52B50
:10016A00B4050DE52D6401452C7005120850800375
:10017A00120800E52BB4060BE52D6401452C70032B
:07018A0002085D1206B0221D
:10050C00AB24EBFF3395E0FE7C017D901200C4ED33
:10051C004C70037F1D22EB75F00412000EAFF0EF50
:10052C00700FEB75F06412000EAFF0EF60037F1DDF
:03053C00227F1CFF
:01053F002299
:1005A100A907E93395E0FED3EF9BEA6480F8EE6496
:1005B10080984002A905E9FF3395E0FEC3EF9DEC69
:0E05C1006480F8EE6480985002A903AF012216
:10029800AF2585262CEF14B40C00504C9002B27593
:1002A800F003A4C58325F0C583730202D60202DEDB
:1002B8000202D60202DA0202D60202DA0202D602EA
:1002C80002D60202DA0202D60202DA0202D67B1F44
:1002D80080097B1E800512050CEFFB7A007D017CEE
:0B02E80000AF2C1205A18F2C852C26E6
:0102F30022E8
:10021D008F2BE52B700F74242FF8E6FF7B637A008C
:10022D00E4FDFC8012E52BB401192424F8E6FF7BD4
:10023D000C7A007D017C001205A17424252BF8A6F3
:10024D00078005E52BB40203020298E52BB40309E0
:10025D002424F8E6FF7B178022E52B64046005E576
:10026D002BB4050B7424252BF8E6FF7B3B800CE5A6
:10027D002BB406162424F8E6FF7B067A00E4FDFC79
:0B028D001205A17424252BF8A60722FF
:0800030074242FF80602021D0F
:08087E0074242FF81602021D7C
:0300000002019169
:0C019100787FE4F6D8FD75814D0201D89E
:10000E00C2D530F707B2D563F0FF05F030E70CB27A
:10001E00D5F4048463F0FF05F080018430D502F43A
:02002E000422AA
:10003000BB010CE58229F582E5833AF583E0225085
:1000400006E92582F8E622BBFE06E92582F8E222CF
:0D005000E58229F582E5833AF583E49322E9
:10005D00EF8DF0A4A8F0CF8CF0A428CE8DF0A42EB7
:02006D00FE2271
:10006F00BC000BBE0029EF8DF084FFADF022E4CC75
:10007F00F875F008EF2FFFEE33FEEC33FCEE9DEC3E
:10008F00984005FCEE9DFE0FD5F0E9E4CEFD22ED84
:10009F00F8F5F0EE8420D21CFEADF075F008EF2FCE
:1000AF00FFED33FD4007985006D5F0F222C398FDBF
:0500BF000FD5F0EA225C
:1000C400C2D5EC30E709B2D5E4C39DFDE49CFCEE57
:1000D40030E715B2D5E4C39FFFE49EFE12006FC360
:1000E400E49DFDE49CFC800312006F30D507C3E45B
:0600F4009FFFE49EFE22C6
:10019D000204D6E493A3F8E493A34003F68001F29E
:1001AD0008DFF48029E493A3F85407240CC8C33363
:1001BD00C4540F4420C8834004F456800146F6DF32
:1001CD00E4800B01020408102040809005FCE47EC1
:1001DD00019360BCA3FF543F30E509541FFEE49327
:1001ED00A360010ECF54C025E060A840B8E493A3EE
:1001FD00FAE493A3F8E493A3C8C582C8CAC583CA19
:10020D00F0A3C8C582C8CAC583CADFE9DEE780BED0
:0106250000D4
:00000001FF
