:10000E000000F882F8E9F951F9AEFA0BFA5DFAAF91
:10001E00FAFAFB41FB86FBC5FC02FC3AFC6FFCA224
:10002E00FCD2FCFFFD2AFD52FD78FD9CFDBEFDDEDF
:10003E00FDFCFE18FE33FE4CFE64FE7BFE90FEA41D
:10004E00FEB7FEC9FEDAFEEAFEF911021102110434
:10005E00110211021104110214020D030F011108F5
:10006E0012021202120312011202110211021101E6
:10007E00110111020F020F020D020F0414041402DB
:10008E00140212020F020D060802080211020F02DC
:10009E000D0208060802080205020F020D020A06EA
:1000AE000A020A02120211020F020C0608021402C0
:1000BE0014021202140211040D02080208021102A7
:0700CE000F020D020808FFFC
:10011400120148E509F46028E50A90005893F509AE
:10012400050AE50A93F508050A75F07DA4FFAEF00B
:1001340012015FC28C7F057E0012015FD28C80D3D6
:04014400C28C80FEEB
:03000B000200D51B
:1000D500C0E0C083C082C0D075D000C005C006C0D6
:0100E5000713
:1000E600E50925E0240EF582E43400F583E493FE69
:0F00F600740193FF4E6008AD078D8A8E8CB2A502
:0F010500D007D006D005D0D0D082D083D0E03242
:10015F00EF1FAC0670011E4C600A7D027CEFDCFEC7
:04016F00DDFC80EC47
:010173002269
:100148005389F0438901758A66758CFCC28DD28CFF
:07015800D2A9D2AFC2B92207
:0300000002017486
:0C017400787FE4F6D8FD75810A020114C2
:00000001FF
