:1000430000000000000000007F0808087F00000E89
:100053001515150C00007F010200007F010200004E
:100063000E11110E00007D000000000000000000D2
:10000300E4F508F509F50A1200E3E4F508E5082527
:100013000990004393FD7C00AF081200A00508E59A
:1000230008C3940840E7050AE50AD3940A40DBE4D1
:10003300F50A0509E509D3942840CFE4F50980CAF8
:0500E300C2B6C2B52207
:02007300AD07D7
:10007500E4FB7E007480A803088006CEA2E713CEB9
:1000850013D8F8FFEDF582EF558224FF92B4D2B66E
:0A009500C2B60BBB08DCD2B5C2B541
:01009F00223E
:1000A000AA07AF05120073AF02A807748008800288
:1000B000C313D8FCF4F5807F017E001200C2758066
:0200C000FF221D
:1000C200EF1FAC0670011E4C600A7D027CEFDCFE65
:0400D200DDFC80ECE5
:0100D6002207
:030000000200D724
:0C00D700787FE4F6D8FD75810A02000372
:00000001FF
