:1000BC0012000E8F0AE50A6010B4010DE50BB401B5
:0A00CC00047F0080027F018F0B22E9
:10009B00E50BB4010EAFA07801EF08800103D8FD8A
:1000AB00F5A022AFA07801EF08800123D8FDF5A0C1
:0100BB002222
:0B010E001200D675A0FE1200BC80FBA2
:03000B0002006789
:0B006700C0E0C0D075D000C000C00792
:10007200758A66758CFC0509E50970020508C3944A
:10008200F4E5089401400975080075090012009B07
:09009200D007D000D0D0D0E0323C
:1000D6005389F0438901758A66758CFCC28DD28C72
:0700E600D2A9D2AFC2B9227A
:10000E00E4F50C20B1147F14FE800720B1097F1493
:10001E007E001200ED80F4750C0120B011800320DB
:10002E00B0097F147E001200ED80F4750C0220B230
:10003E0011800320B2097F147E001200ED80F4754A
:10004E000C0320B311800320B3097F147E0012002D
:08005E00ED80F4750C04AF0CF9
:010066002277
:1000ED00EF1FAC0670011E4C600A7D027CEFDCFE3A
:0400FD00DDFC80ECBA
:0101010022DB
:03000000020102F8
:0C010200787FE4F6D8FD75810C02010E38
:00000001FF
