:10009700120288751A00751B01751C00751D01ACCD
:1000A7001CAD1DAE1AAF1B1200308E188F19750CC0
:1000B70002AB1BAA1A7D017F011202407B787D03E8
:1000C7007F011202C1750C02AB1DAA1C7D047F01C2
:1000D7001202407B3D7D067F011202C1750C02AB07
:1000E70019AA187D077F011202407FE87E031202DA
:1000F70073051DE51D7002051CC3940AE51C648089
:100107009480409B051BE51B7002051AC3940AE502
:0A0117001A64809480408202009A6E
:06029C00C2A58F80D2A76D
:0802A2007F027EEFDEFEDFFCAF
:0102AA002231
:0A02B700C2A612029CC2A70202A216
:10022200CFCDCFCECCCE1200427C007D0A1200424E
:04023200ED2430FF88
:0A023600D2A612029CC2A70202A287
:10025D00AE07BE0104ED148006BE0209ED243F4435
:06026D0080FF1202B7221F
:100288007F381202B77F0C1202B77F061202B77FBF
:04029800010202B7A6
:0A02C100AC0312025DAF0402023626
:0601FF008B288A29892AE1
:1002050012025DE4FDAB28AA29A92A8D8275830017
:0C021500120003FF60061202360D80E9A3
:0102210022BA
:0C01CC007F0AEA24FFFDE434FFFC7E0003
:0801D8008E0D8F0E8C0F8D10AF
:1001E0007F017E00E4FBEBC39510E50F6480F8749B
:0E01F0008098500AAC0DAD0E1200300B80E866
:0101FE0022DE
:040240008A0A8B0B90
:1002440012025DAA0CEAD39400400D1201CCAC0A50
:08025400AD0B1202221A80ED2D
:01025C00227F
:1001210012025DC3EA64809480400B7F2B12023679
:100131008A168B17800E7F2D120236C3E49BF517AA
:10014100E49AF516AA15EAD39400400D1201CCAC3D
:0901510016AD171202221A80ED0E
:01015A002282
:04015B008A208B214A
:10015F0012025DAA22EAD3940040297F101201CE29
:10016F00AC20AD21CFCDCFCECCCE120042EF540F6D
:10017F00FEC3940AEE5004243080022437FF12028B
:04018F00361A80D1CB
:010193002249
:040194008A258B2607
:1001980012025DAA27EAD394004028EA24FFFDE46E
:1001A80034FFFC7F027E001201D8AC25AD26CFCDEE
:1001B800CFCECCCE120042EF54012430FF120236CB
:0301C8001A80D2C8
:0101CB002211
:10027300EF1FAC0670011E4C600A7D027CEFDCFEB2
:04028300DDFC80EC32
:010287002254
:030000000202AB4E
:0C02AB00787FE4F6D8FD75812A020097E8
:10000300BB010CE58229F582E5833AF583E02250B2
:1000130006E92582F8E622BBFE06E92582F8E222FC
:0D002300E58229F582E5833AF583E4932216
:10003000EF8DF0A4A8F0CF8CF0A428CE8DF0A42EE4
:02004000FE229E
:10004200BC000BBE0029EF8DF084FFADF022E4CCA2
:10005200F875F008EF2FFFEE33FEEC33FCEE9DEC6B
:10006200984005FCEE9DFE0FD5F0E9E4CEFD22EDB1
:10007200F8F5F0EE8420D21CFEADF075F008EF2FFB
:10008200FFED33FD4007985006D5F0F222C398FDEC
:050092000FD5F0EA2289
:00000001FF
