:100108000808387C7E3F3F7E7C3808103C52D34636
:0401180046D3523C3C
:0300BC00120132FC
:1000BF00E4F51AF51BAF1B74102FF8E6FD7C001248
:1000CF0000E6051BE51B7002051AC39408E51A64C8
:0700DF0080948040E080D90D
:05013200C2B6C2B522B7
:02008F00AD07BB
:10009100E4FB7E007480A803088006CEA2E713CE9D
:1000A10013D8F8FFEDF582EF558224FF92B4D2B652
:0A00B100C2B60BBB08DCD2B5C2B525
:0100BB002222
:1000E600AA07AF0512008FAF02A807748008800226
:1000F600C313D8FCF4F5807F017E0012011D7580C4
:02010600FF22D6
:10011D00EF1FAC0670011E4C600A7D027CEFDCFE09
:04012D00DDFC80EC89
:0101310022AB
:03000000020003F8
:0C000300787FE4F6D8FD75811B02004AEE
:10000F000200BCE493A3F8E493A34003F68001F24B
:10001F0008DFF48029E493A3F85407240CC8C333F2
:10002F00C4540F4420C8834004F456800146F6DFC1
:10003F00E4800B0102040810204080900108E47E48
:10004F00019360BCA3FF543F30E509541FFEE493B6
:10005F00A360010ECF54C025E060A840B8E493A37D
:10006F00FAE493A3F8E493A3C8C582C8CAC583CAA8
:10007F00F0A3C8C582C8CAC583CADFE9DEE780BE60
:01011C0000E2
:00000001FF
