:0A05250050617373576F72643A005F
:1004AA001204D47BFF7A0579257D017F0112041499
:0504BA001203C180FBEC
:1004BF00EF1FAC0670011E4C600A7D027CEFDCFE64
:0404CF00DDFC80ECE4
:0104D3002206
:0604FB00C2A58F80D2A70C
:080501007F027EEFDEFEDFFC4D
:0105090022CF
:0A052F00C2A61204FBC2A7020501D8
:10045900CFCDCFCECCCE1201CB7C007D0A1201CB01
:04046900ED2430FF4F
:0A046D00D2A61204FBC2A70205018B
:10049400AE07BE0104ED148006BE0209ED243F44FC
:0604A40080FF12052F226B
:1004D4007F3812052F7F0C12052F7F0612052F7F00
:0404E4000102052FDD
:0A053900AC03120494AF0402046D39
:060414008B088A09890A29
:10041A00120494E4FDAB08AA09A90A8D8275830027
:0C042A0012018CFF600612046D0D80E9C9
:0104360022A3
:0C038E007F0AEA24FFFDE434FFFC7E003F
:08039A008E0D8F0E8C0F8D10EB
:1003A2007F017E00E4FBEBC39510E50F6480F874D7
:0E03B2008098500AAC0DAD0E1201B90B80E818
:0103C000221A
:040477008A0A8B0B57
:10047B00120494AA0CEAD39400400D12038EAC0A1A
:08048B00AD0B1204591A80EDBB
:010493002246
:1002AC00120494C3EA64809480400B7F2B12046D7B
:1002BC008A168B17800E7F2D12046DC3E49BF517E5
:1002CC00E49AF516AA15EAD39400400D12038EACED
:0902DC0016AD171204591A80ED49
:0102E50022F6
:0402E6008A218B22BC
:1002EA00120494AA23EAD3940040297F101203909F
:1002FA00AC21AD22CFCDCFCECCCE1201CBEF540F55
:10030A00FEC3940AEE5004243080022437FF1204FC
:04031A006D1A80D107
:01031E0022BC
:04031F008A268B2778
:10032300120494AA28EAD394004028EA24FFFDE4A7
:1003330034FFFC7F027E0012039AAC26AD27CFCD9B
:10034300CFCECCCE1201CBEF54012430FF12046D7B
:030353001A80D23B
:010356002284
:10000300E4F5087590FFC2932097137F14FE120442
:10001300BF3097FD7F147E001204BF750801209640
:10002300147F147E001204BF3096FD7F147E0012ED
:1000330004BF7508052095147F147E001204BF3099
:1000430095FD7F147E001204BF7508092094147F68
:10005300147E001204BF3094FD7F147E001204BF8F
:1000630075080D7590FFC2922097147F147E0012BD
:1000730004BF3097FD7F147E001204BF7508022071
:1000830096147F147E001204BF3096FD7F147E0009
:100093001204BF7508062095147F147E001204BF56
:1000A3003095FD7F147E001204BF75080A20941456
:1000B3007F147E001204BF3094FD7F147E0012046F
:1000C300BF75080E7590FFC2912097147F147E00B0
:1000D3001204BF3097FD7F147E001204BF7508031E
:1000E3002096147F147E001204BF3096FD7F147E89
:1000F300001204BF7508072095147F147E001204B4
:10010300BF3095FD7F147E001204BF75080B209449
:10011300147F147E001204BF3094FD7F147E0012FE
:1001230004BF75080F7590FFC2902097147F147E4B
:10013300001204BF3097FD7F147E001204BF7508C0
:10014300042096147F147E001204BF3096FD7F14A2
:100153007E001204BF7508082095147F147E0012D8
:1001630004BF3095FD7F147E001204BF75080C2078
:1001730094147F147E001204BF3094FD7F147E001C
:080183001204BF750810AF085B
:01018B002251
:0D0518004F4B2000455252200020202000B3
:07055E007D0E7F0102041471
:090543007BFF7A05791802055EC0
:09054C007BFF7A05791C02055EB3
:090555007BFF7A05792102055EA5
:0E050A00AB07AA06750C047D017F0202047780
:04056500021A04D2A0
:10035700C3E5199404E5189400502B0519E51970A5
:10036700020518AE1CAF1D7C007D0A1201B9E51EFF
:1003770075F00A84EF25F0F51DEC3EF51CAF1DFE68
:0703870012050A12055522C0
:10043700E51DB51B0AE51CB51A0512054380031215
:10044700054CE4F518F519F51CF51DAF1DAE1C029A
:02045700050A94
:1004E800E4F518F519F51CF51DAF1DAE1C12050A2B
:0304F800020555A5
:1003EB00D3E5199400E5189400401DE51915197013
:1003FB00021518AE1CAF1D7C007D0A1201CB8E1CA2
:09040B008F1D12050A120555228D
:1003C1001200038F1EE51E6020D3940A500302031E
:1003D10057E51EB40B03020437E51EB40C030204F7
:0A03E100E8E51EB40D031203EB2241
:03000000020220D9
:0C022000787FE4F6D8FD758128020267A3
:10018C00BB010CE58229F582E5833AF583E0225028
:10019C0006E92582F8E622BBFE06E92582F8E22272
:0D01AC00E58229F582E5833AF583E493228C
:1001B900EF8DF0A4A8F0CF8CF0A428CE8DF0A42E5A
:0201C900FE2214
:1001CB00BC000BBE0029EF8DF084FFADF022E4CC18
:1001DB00F875F008EF2FFFEE33FEEC33FCEE9DECE1
:1001EB00984005FCEE9DFE0FD5F0E9E4CEFD22ED27
:1001FB00F8F5F0EE8420D21CFEADF075F008EF2F71
:10020B00FFED33FD4007985006D5F0F222C398FD61
:05021B000FD5F0EA22FE
:10022C000204AAE493A3F8E493A34003F68001F23A
:10023C0008DFF48029E493A3F85407240CC8C333D3
:10024C00C4540F4420C8834004F456800146F6DFA2
:10025C00E4800B0102040810204080900565E47EC8
:10026C00019360BCA3FF543F30E509541FFEE49397
:10027C00A360010ECF54C025E060A840B8E493A35E
:10028C00FAE493A3F8E493A3C8C582C8CAC583CA89
:10029C00F0A3C8C582C8CAC583CADFE9DEE780BE41
:010569000091
:00000001FF
