:0502DB004675636B0095
:1000CD001202797B537D017F011202D17B427D02A9
:1000DD007F011202D17BFF7A0279DB7D047F011251
:1000ED000256750C037B377A027D097F01120229B6
:1000FD00750C037B817AFC7D0D7F0112013B750C24
:10010D00027B5A7A007D017F02120185750C087BF6
:10011D005A7A007D047F021201BE7BDF7D0D7F02C6
:0E012D001202D17B437D0E7F021202D180FEB2
:06028D00C2A58F80D2A77C
:09029300007F027EC7DEFEDFFCE5
:01029C00223F
:0A02C700C2A612028DC2A702029324
:0402AD00ED2430FF0D
:0A02B100D2A612028DC2A70202932A
:100279007F381202C77F0C1202C77F061202C77F9E
:04028900010202C7A5
:10029D00EDBF0103148002243F4480FF1202C722E8
:0A02D100AC0312029DAF040202B15B
:060256008B088A09890AE9
:10025C0012029DE4FDAB08AA09A90A8D82758300E0
:0C026C00120003FF60061202B10D80E9D1
:010278002263
:0C01F6007F0AEA24FFFDE434FFFC7E00D9
:080202008E0D8F0E8C0F8D1084
:10020A007F017E00E4FBEBC39510E50F6480F87470
:0E021A008098500AAC0DAD0E1200300B80E83B
:0102280022B3
:040229008A0A8B0BA7
:10022D0012029DAA0CEAD39400401D1201F6AC0AED
:10023D00AD0BCFCDCFCECCCE1200427C007D0A12BD
:08024D0000421202AD1A80DD2F
:010255002286
:04013B008A0A8B0B96
:10013F0012029DC3E50A6480948040047F2B800DDA
:10014F00C3E4950BF50BE4950AF50A7F2D1202B166
:10015F00AA0CEAD39400401D1201F6AC0AAD0BCFE6
:10016F00CDCFCECCCE1200977C007D0A1200971215
:05017F0002AD1A80DD55
:010184002258
:040185008A0A8B0B4C
:1001890012029DAA0CEAD3940040297F101201F8AB
:10019900AC0AAD0BCFCDCFCECCCE120042EF540F6F
:1001A900FEC3940AEE5004243080022437FF120261
:0401B900B11A80D126
:0101BD00221F
:0401BE008A0A8B0B13
:1001C20012029DAA0CEAD394004028EA24FFFDE41F
:1001D20034FFFC7F027E00120202AC0AAD0BCFCDCF
:1001E200CFCECCCE120042EF54012430FF1202B126
:0301F2001A80D29E
:0101F50022E7
:030000000202BB3E
:0C02BB00787FE4F6D8FD7581100200CDBC
:10000300BB010CE58229F582E5833AF583E02250B2
:1000130006E92582F8E622BBFE06E92582F8E222FC
:0D002300E58229F582E5833AF583E4932216
:10003000EF8DF0A4A8F0CF8CF0A428CE8DF0A42EE4
:02004000FE229E
:10004200BC000BBE0029EF8DF084FFADF022E4CCA2
:10005200F875F008EF2FFFEE33FEEC33FCEE9DEC6B
:10006200984005FCEE9DFE0FD5F0E9E4CEFD22EDB1
:10007200F8F5F0EE8420D21CFEADF075F008EF2FFB
:10008200FFED33FD4007985006D5F0F222C398FDEC
:050092000FD5F0EA2289
:10009700C2D5EC30E709B2D5E4C39DFDE49CFCEE84
:1000A70030E715B2D5E4C39FFFE49EFE120042C3BA
:1000B700E49DFDE49CFC800312004230D507C3E4B5
:0600C7009FFFE49EFE22F3
:00000001FF
