:10020900120255E517FD7C007F0112009A120106C2
:100219008F15E515B401F60517531703E517700493
:10022900F514801CE517B401057514328012E51721
:10023900B4020575144B8008E517B40303751464FB
:0C024900E517FD7C007F0112009A80C1C7
:03000B0002015F90
:10015F00C0E0C0F0C0D075D000C000C004C005C062
:03016F0006C007C0
:10017200758AA4758CFF0513E51370020512AE1281
:10018200FF7C007D641201B48C128D13C3E51395BC
:1001920014E51294005006C2A0D2908004D2A0C2EC
:0101A20090CC
:1001A300D007D006D005D004D000D0D0D0F0D0E016
:0101B3003219
:10026C00EF1FAC0670011E4C600A7D027CEFDCFEB9
:04027C00DDFC80EC39
:01028000225B
:10010600E4F51820B1147F14FE800720B1097F148E
:100116007E0012026C80F475180120B01180032055
:10012600B0097F147E0012026C80F475180220B2AA
:1001360011800320B2097F147E0012026C80F475D0
:10014600180320B311800320B3097F147E00120226
:080156006C80F4751804AF1869
:01015E00227E
:100255005389F0438901758AA4758CFFC28DD28CB0
:07026500D2A9D2AFC2B922F9
:0C0281000A083F065B4F666D7D077F6F2B
:10009A00EF14B4080050549000AF75F003A4C58360
:1000AA0025F0C583730200C70200CB0200CF02000D
:1000BA00D30200D70200DF0200E70200EFD2A480D9
:1000CA000ED2A48012D2A48016D2A4801AC2A4D2BC
:1000DA00A3D2A28016C2A4D2A3C2A2800EC2A4C274
:1000EA00A3D2A28006C2A4C2A3C2A274082DF8E6B3
:0C00FA00F5807F017E0012026CC2D02253
:0300000002000EED
:0C000E00787FE4F6D8FD758118020055DB
:1001B400BC000BBE0029EF8DF084FFADF022E4CC2F
:1001C400F875F008EF2FFFEE33FEEC33FCEE9DECF8
:1001D400984005FCEE9DFE0FD5F0E9E4CEFD22ED3E
:1001E400F8F5F0EE8420D21CFEADF075F008EF2F88
:1001F400FFED33FD4007985006D5F0F222C398FD79
:050204000FD5F0EA2215
:10001A00020209E493A3F8E493A34003F68001F2F1
:10002A0008DFF48029E493A3F85407240CC8C333E7
:10003A00C4540F4420C8834004F456800146F6DFB6
:10004A00E4800B0102040810204080900281E47EC3
:10005A00019360BCA3FF543F30E509541FFEE493AB
:10006A00A360010ECF54C025E060A840B8E493A372
:10007A00FAE493A3F8E493A3C8C582C8CAC583CA9D
:10008A00F0A3C8C582C8CAC583CADFE9DEE780BE55
:01028D000070
:00000001FF
