:1002000012024CE517FD7C007F0112009A1200FDDE
:100210008F15E515B401F60517531703E51770049C
:10022000F514801CE517B401057514328012E5172A
:10023000B4020575144B8008E517B4030375146404
:0C024000E517FD7C007F0112009A80C1D0
:03000B0002015699
:10015600C0E0C0F0C0D075D000C000C004C005C06B
:0301660006C007C9
:10016900758AA4758CFF0513E51370020512AE128A
:10017900FF7C007D641201AB8C128D13C3E51395CE
:1001890014E51294005006C2A0D2908004D2A0C2F5
:0101990090D5
:10019A00D007D006D005D004D000D0D0D0F0D0E01F
:0101AA003222
:10026300EF1FAC0670011E4C600A7D027CEFDCFEC2
:04027300DDFC80EC42
:010277002264
:1000FD00E4F51820B1147F14FE800720B1097F1498
:10010D007E0012026380F475180120B01180032067
:10011D00B0097F147E0012026380F475180220B2BC
:10012D0011800320B2097F147E0012026380F475E2
:10013D00180320B311800320B3097F147E0012022F
:08014D006380F4751804AF187B
:010155002287
:10024C005389F0438901758AA4758CFFC28DD28CB9
:07025C00D2A9D2AFC2B92202
:0C0278000A083F065B4F666D7D077F6F34
:10009A00EF14B4080050549000AF75F003A4C58360
:1000AA0025F0C583730200C70200CB0200CF02000D
:1000BA00D30200D70200DF0200E70200EFD2A480D9
:1000CA000ED2A48012D2A48016D2A4801AC2A4D2BC
:1000DA00A3D2A28016C2A4D2A3C2A2800EC2A4C274
:1000EA00A3D2A28006C2A4C2A3C2A274082DF8E6B3
:0300FA00F580226C
:0300000002000EED
:0C000E00787FE4F6D8FD758118020055DB
:1001AB00BC000BBE0029EF8DF084FFADF022E4CC38
:1001BB00F875F008EF2FFFEE33FEEC33FCEE9DEC01
:1001CB00984005FCEE9DFE0FD5F0E9E4CEFD22ED47
:1001DB00F8F5F0EE8420D21CFEADF075F008EF2F91
:1001EB00FFED33FD4007985006D5F0F222C398FD82
:0501FB000FD5F0EA221F
:10001A00020200E493A3F8E493A34003F68001F2FA
:10002A0008DFF48029E493A3F85407240CC8C333E7
:10003A00C4540F4420C8834004F456800146F6DFB6
:10004A00E4800B0102040810204080900278E47ECC
:10005A00019360BCA3FF543F30E509541FFEE493AB
:10006A00A360010ECF54C025E060A840B8E493A372
:10007A00FAE493A3F8E493A3C8C582C8CAC583CA9D
:10008A00F0A3C8C582C8CAC583CADFE9DEE780BE55
:010284000079
:00000001FF
